{
  "contractName": "Copyright",
  "abi": [
    {
      "inputs": [],
      "stateMutability": "nonpayable",
      "type": "constructor"
    },
    {
      "inputs": [],
      "name": "amount",
      "outputs": [
        {
          "internalType": "uint256",
          "name": "",
          "type": "uint256"
        }
      ],
      "stateMutability": "view",
      "type": "function",
      "constant": true
    },
    {
      "inputs": [
        {
          "internalType": "uint256",
          "name": "",
          "type": "uint256"
        }
      ],
      "name": "channelIdtoVidId",
      "outputs": [
        {
          "internalType": "uint256",
          "name": "",
          "type": "uint256"
        }
      ],
      "stateMutability": "view",
      "type": "function",
      "constant": true
    },
    {
      "inputs": [],
      "name": "count",
      "outputs": [
        {
          "internalType": "uint256",
          "name": "",
          "type": "uint256"
        }
      ],
      "stateMutability": "view",
      "type": "function",
      "constant": true
    },
    {
      "inputs": [],
      "name": "labelAddress",
      "outputs": [
        {
          "internalType": "address payable",
          "name": "",
          "type": "address"
        }
      ],
      "stateMutability": "view",
      "type": "function",
      "constant": true
    },
    {
      "inputs": [
        {
          "internalType": "uint256",
          "name": "_yourVideoId",
          "type": "uint256"
        },
        {
          "internalType": "uint256",
          "name": "_channelId",
          "type": "uint256"
        },
        {
          "internalType": "string",
          "name": "_channelName",
          "type": "string"
        }
      ],
      "name": "get",
      "outputs": [],
      "stateMutability": "payable",
      "type": "function",
      "payable": true
    },
    {
      "inputs": [],
      "name": "balanceOf1",
      "outputs": [
        {
          "internalType": "uint256",
          "name": "",
          "type": "uint256"
        }
      ],
      "stateMutability": "view",
      "type": "function",
      "constant": true
    },
    {
      "inputs": [],
      "name": "debit",
      "outputs": [],
      "stateMutability": "nonpayable",
      "type": "function"
    },
    {
      "inputs": [],
      "name": "display",
      "outputs": [
        {
          "components": [
            {
              "internalType": "uint256",
              "name": "yourVideoId",
              "type": "uint256"
            },
            {
              "internalType": "uint256",
              "name": "channelId",
              "type": "uint256"
            },
            {
              "internalType": "string",
              "name": "yourChannelName",
              "type": "string"
            },
            {
              "internalType": "address payable",
              "name": "yourAddress",
              "type": "address"
            },
            {
              "internalType": "uint256",
              "name": "feesPaid",
              "type": "uint256"
            },
            {
              "internalType": "uint256",
              "name": "timeStamp",
              "type": "uint256"
            }
          ],
          "internalType": "struct Copyright.allInfo[]",
          "name": "",
          "type": "tuple[]"
        }
      ],
      "stateMutability": "view",
      "type": "function",
      "constant": true
    }
  ],
  "bytecode": "0x60806040526000600155600060025534801561001a57600080fd5b5073098c87513d8bae2ec6c2e909941656f2ef1e862d600460006101000a81548173ffffffffffffffffffffffffffffffffffffffff021916908373ffffffffffffffffffffffffffffffffffffffff160217905550610b478061007f6000396000f3fe60806040526004361061007b5760003560e01c80634e02b4821161004e5780634e02b4821461011d57806359ccb22a146101485780639c8fa9ca14610185578063aa8c217c1461019c5761007b565b806306661abd146100805780630c1b7c1e146100ab5780631bb2cb1f146100d6578063282ca67014610101575b600080fd5b34801561008c57600080fd5b506100956101c7565b6040516100a291906109f9565b60405180910390f35b3480156100b757600080fd5b506100c06101cd565b6040516100cd91906109b7565b60405180910390f35b3480156100e257600080fd5b506100eb61034c565b6040516100f891906109f9565b60405180910390f35b61011b60048036038101906101169190610743565b610354565b005b34801561012957600080fd5b506101326104ed565b60405161013f919061099c565b60405180910390f35b34801561015457600080fd5b5061016f600480360381019061016a919061071a565b610513565b60405161017c91906109f9565b60405180910390f35b34801561019157600080fd5b5061019a61052b565b005b3480156101a857600080fd5b506101b1610618565b6040516101be91906109f9565b60405180910390f35b60025481565b60606003805480602002602001604051908101604052809291908181526020016000905b8282101561034357838290600052602060002090600602016040518060c00160405290816000820154815260200160018201548152602001600282018054600181600116156101000203166002900480601f0160208091040260200160405190810160405280929190818152602001828054600181600116156101000203166002900480156102c15780601f10610296576101008083540402835291602001916102c1565b820191906000526020600020905b8154815290600101906020018083116102a457829003601f168201915b505050505081526020016003820160009054906101000a900473ffffffffffffffffffffffffffffffffffffffff1673ffffffffffffffffffffffffffffffffffffffff1673ffffffffffffffffffffffffffffffffffffffff16815260200160048201548152602001600582015481525050815260200190600101906101f1565b50505050905090565b600047905090565b82848060008084815260200190815260200160002054141561037557600080fd5b600260008154809291906001019190505550856000808781526020019081526020016000208190555060036040518060c0016040528088815260200187815260200186868080601f016020809104026020016040519081016040528093929190818152602001838380828437600081840152601f19601f8201169050808301925050505050505081526020013373ffffffffffffffffffffffffffffffffffffffff1681526020013481526020014281525090806001815401808255809150506001900390600052602060002090600602016000909190919091506000820151816000015560208201518160010155604082015181600201908051906020019061048092919061061e565b5060608201518160030160006101000a81548173ffffffffffffffffffffffffffffffffffffffff021916908373ffffffffffffffffffffffffffffffffffffffff1602179055506080820151816004015560a08201518160050155505047600181905550505050505050565b600460009054906101000a900473ffffffffffffffffffffffffffffffffffffffff1681565b60006020528060005260406000206000915090505481565b73f2fec68a4986a1797c4fcc2f7591c0e938d1d3fe73ffffffffffffffffffffffffffffffffffffffff163373ffffffffffffffffffffffffffffffffffffffff16146105ad576040517f08c379a00000000000000000000000000000000000000000000000000000000081526004016105a4906109d9565b60405180910390fd5b600460009054906101000a900473ffffffffffffffffffffffffffffffffffffffff1673ffffffffffffffffffffffffffffffffffffffff166108fc479081150290604051600060405180830381858888f19350505050158015610615573d6000803e3d6000fd5b50565b60015481565b828054600181600116156101000203166002900490600052602060002090601f016020900481019282601f1061065f57805160ff191683800117855561068d565b8280016001018555821561068d579182015b8281111561068c578251825591602001919060010190610671565b5b50905061069a919061069e565b5090565b5b808211156106b757600081600090555060010161069f565b5090565b60008083601f8401126106cd57600080fd5b8235905067ffffffffffffffff8111156106e657600080fd5b6020830191508360018202830111156106fe57600080fd5b9250929050565b60008135905061071481610afa565b92915050565b60006020828403121561072c57600080fd5b600061073a84828501610705565b91505092915050565b6000806000806060858703121561075957600080fd5b600061076787828801610705565b945050602061077887828801610705565b935050604085013567ffffffffffffffff81111561079557600080fd5b6107a1878288016106bb565b925092505092959194509250565b60006107bb83836108f5565b905092915050565b6107cc81610a7a565b82525050565b6107db81610a7a565b82525050565b60006107ec82610a24565b6107f68185610a47565b93508360208202850161080885610a14565b8060005b85811015610844578484038952815161082585826107af565b945061083083610a3a565b925060208a0199505060018101905061080c565b50829750879550505050505092915050565b600061086182610a2f565b61086b8185610a58565b935061087b818560208601610ab6565b61088481610ae9565b840191505092915050565b600061089c603a83610a69565b91507f3a20416c6572742120596f7520646f206e6f742068617665207468652061636360008301527f65737320746f2063616c6c20746869732066756e6374696f6e2e0000000000006020830152604082019050919050565b600060c08301600083015161090d600086018261097e565b506020830151610920602086018261097e565b50604083015184820360408601526109388282610856565b915050606083015161094d60608601826107c3565b506080830151610960608086018261097e565b5060a083015161097360a086018261097e565b508091505092915050565b61098781610aac565b82525050565b61099681610aac565b82525050565b60006020820190506109b160008301846107d2565b92915050565b600060208201905081810360008301526109d181846107e1565b905092915050565b600060208201905081810360008301526109f28161088f565b9050919050565b6000602082019050610a0e600083018461098d565b92915050565b6000819050602082019050919050565b600081519050919050565b600081519050919050565b6000602082019050919050565b600082825260208201905092915050565b600082825260208201905092915050565b600082825260208201905092915050565b6000610a8582610a8c565b9050919050565b600073ffffffffffffffffffffffffffffffffffffffff82169050919050565b6000819050919050565b60005b83811015610ad4578082015181840152602081019050610ab9565b83811115610ae3576000848401525b50505050565b6000601f19601f8301169050919050565b610b0381610aac565b8114610b0e57600080fd5b5056fea26469706673582212204c79f930b91036f9b0471e9047347fb1f8a1609865e8f82b17420a4b0f22b80c64736f6c634300060c0033",
  "immutableReferences": {},
  "source": "// SPDX-License-Identifier: MIT\r\n// describes the range of solidity version compatible to compile this smart contract\r\npragma solidity >=0.6.0 <0.8.4;\r\n//an experimental library, here we have used it to create the array of struct data structure which is not possible with normal library yet \r\npragma experimental ABIEncoderV2;\r\n\r\nimport \"./Label.sol\";\r\ncontract Copyright {\r\nmapping (uint => uint) public channelIdtoVidId;\r\n // mapping(uint => string) public getList;\r\n  struct allInfo {\r\n      uint yourVideoId;\r\n      uint channelId;\r\n      string yourChannelName;\r\n      address payable yourAddress;\r\n      uint feesPaid;\r\n      uint timeStamp;\r\n  }\r\n  uint public amount=0;\r\n  uint public count=0;\r\n  allInfo[] allInfoarray;\r\n  //address payable private labelAddress= address(uint160(0x583deA42d6b3DF90bafB05B8EfFB180765060604));\r\n  address payable public labelAddress;\r\n  constructor () public {\r\n    labelAddress= payable(0x098C87513d8BAe2Ec6c2E909941656F2eF1e862D);\r\n    \r\n\r\n  }\r\n  modifier checkOwner(){\r\n    require(msg.sender == 0xf2FEc68a4986a1797C4fCc2F7591C0E938D1D3Fe, \": Alert! You do not have the access to call this function.\");\r\n    _;\r\n  }\r\n  modifier checkTheUser(uint channelId,uint yourVideoId){\r\n      require(channelIdtoVidId[channelId] != yourVideoId);\r\n      _;\r\n  }\r\n  //this function is called by user on front end of smart contract where he/she fetches the required parameters of the function and the\r\n  // fees of the contract since it is a payable contract which means it is made to accept payments\r\n  function get(uint _yourVideoId, uint _channelId, string calldata _channelName ) external payable checkTheUser(_channelId, _yourVideoId){\r\n    count ++;\r\n    channelIdtoVidId[_channelId] = _yourVideoId;\r\n    allInfoarray.push(allInfo(_yourVideoId, _channelId, _channelName,payable(msg.sender), msg.value,block.timestamp));\r\n    amount =address(this).balance;\r\n\r\n  }\r\n  function balanceOf1() external view returns(uint){\r\n    return address(this).balance;\r\n  }\r\n\r\n                              /* -- this is not working properly -- */\r\n\r\n  function debit() external checkOwner(){\r\n    labelAddress.transfer(address(this).balance);\r\n    //labelAddress.transfer(address(this), address(this).balance);\r\n    // we can also directly tranfer this contract's balance to the label.sol contract rather than record label's ethereum account.\r\n  }\r\n  //function to display all the information stored relating to the artist per se VideoId,channelName, his wallet address, timestamp\r\n  function display() public view returns(allInfo[] memory) {\r\n    return allInfoarray;\r\n  }\r\n}\r\n",
  "sourcePath": "C:/youtube/src/contracts/Copyright.sol",
  "compiler": {
    "name": "solc",
    "version": "0.6.12+commit.27d51765.Emscripten.clang"
  },
  "schemaVersion": "3.3.1",
  "updatedAt": "2021-04-16T05:24:41.886Z",
  "networkType": "ethereum",
  "devdoc": {
    "kind": "dev",
    "methods": {},
    "version": 1
  },
  "userdoc": {
    "kind": "user",
    "methods": {},
    "version": 1
  }
}