{
  "contractName": "Label",
  "abi": [
    {
      "stateMutability": "payable",
      "type": "receive"
    },
    {
      "inputs": [],
      "name": "sendEther",
      "outputs": [],
      "stateMutability": "nonpayable",
      "type": "function"
    },
    {
      "inputs": [],
      "name": "receivepayment",
      "outputs": [],
      "stateMutability": "payable",
      "type": "function"
    },
    {
      "inputs": [],
      "name": "balanceOf",
      "outputs": [
        {
          "internalType": "uint256",
          "name": "",
          "type": "uint256"
        }
      ],
      "stateMutability": "view",
      "type": "function"
    },
    {
      "inputs": [
        {
          "internalType": "address payable[]",
          "name": "_address",
          "type": "address[]"
        },
        {
          "internalType": "uint256[]",
          "name": "_amount",
          "type": "uint256[]"
        }
      ],
      "name": "set",
      "outputs": [],
      "stateMutability": "nonpayable",
      "type": "function"
    },
    {
      "inputs": [],
      "name": "display2",
      "outputs": [
        {
          "components": [
            {
              "internalType": "address payable",
              "name": "yourAddress",
              "type": "address"
            },
            {
              "internalType": "uint256",
              "name": "amount",
              "type": "uint256"
            }
          ],
          "internalType": "struct Label.pay[]",
          "name": "",
          "type": "tuple[]"
        }
      ],
      "stateMutability": "view",
      "type": "function"
    }
  ],
  "bytecode": "0x608060405234801561001057600080fd5b5061084c806100206000396000f3fe60806040526004361061004e5760003560e01c80630e29df221461005a5780636b4cd7ae14610071578063722713f71461009c57806378b32798146100c7578063bb22d189146100f057610055565b3661005557005b600080fd5b34801561006657600080fd5b5061006f6100fa565b005b34801561007d57600080fd5b506100866100fc565b6040516100939190610688565b60405180910390f35b3480156100a857600080fd5b506100b16101bb565b6040516100be91906106ca565b60405180910390f35b3480156100d357600080fd5b506100ee60048036038101906100e991906104be565b6101c3565b005b6100f861038c565b005b565b60606000805480602002602001604051908101604052809291908181526020016000905b828210156101b257838290600052602060002090600202016040518060400160405290816000820160009054906101000a900473ffffffffffffffffffffffffffffffffffffffff1673ffffffffffffffffffffffffffffffffffffffff1673ffffffffffffffffffffffffffffffffffffffff16815260200160018201548152505081526020019060010190610120565b50505050905090565b600047905090565b7342a9e93b089f3f57fc3eaec7283090d25ec24d7c73ffffffffffffffffffffffffffffffffffffffff163373ffffffffffffffffffffffffffffffffffffffff1614610245576040517f08c379a000000000000000000000000000000000000000000000000000000000815260040161023c906106aa565b60405180910390fd5b60005b815181101561038757600083828151811061025f57fe5b60200260200101519050600083838151811061027757fe5b602002602001015190506103e881029050600060405180604001604052808473ffffffffffffffffffffffffffffffffffffffff16815260200183815250908060018154018082558091505060019003906000526020600020906002020160009091909190915060008201518160000160006101000a81548173ffffffffffffffffffffffffffffffffffffffff021916908373ffffffffffffffffffffffffffffffffffffffff1602179055506020820151816001015550508173ffffffffffffffffffffffffffffffffffffffff166108fc829081150290604051600060405180830381858888f19350505050158015610377573d6000803e3d6000fd5b5050508080600101915050610248565b505050565b565b60008135905061039d816107e8565b92915050565b600082601f8301126103b457600080fd5b81356103c76103c282610712565b6106e5565b915081818352602084019350602081019050838560208402820111156103ec57600080fd5b60005b8381101561041c5781610402888261038e565b8452602084019350602083019250506001810190506103ef565b5050505092915050565b600082601f83011261043757600080fd5b813561044a6104458261073a565b6106e5565b9150818183526020840193506020810190508385602084028201111561046f57600080fd5b60005b8381101561049f578161048588826104a9565b845260208401935060208301925050600181019050610472565b5050505092915050565b6000813590506104b8816107ff565b92915050565b600080604083850312156104d157600080fd5b600083013567ffffffffffffffff8111156104eb57600080fd5b6104f7858286016103a3565b925050602083013567ffffffffffffffff81111561051457600080fd5b61052085828601610426565b9150509250929050565b6000610536838361063b565b60408301905092915050565b61054b816107ac565b82525050565b600061055c82610772565b610566818561078a565b935061057183610762565b8060005b838110156105a2578151610589888261052a565b97506105948361077d565b925050600181019050610575565b5085935050505092915050565b60006105bc60458361079b565b91507f203a20416c6572742120596f7520646f206e6f7420686176652061636365737360008301527f20746f206368616e676520746865207374617465206f66207468697320636f6e60208301527f74726163740000000000000000000000000000000000000000000000000000006040830152606082019050919050565b6040820160008201516106516000850182610542565b506020820151610664602085018261066a565b50505050565b610673816107de565b82525050565b610682816107de565b82525050565b600060208201905081810360008301526106a28184610551565b905092915050565b600060208201905081810360008301526106c3816105af565b9050919050565b60006020820190506106df6000830184610679565b92915050565b6000604051905081810181811067ffffffffffffffff8211171561070857600080fd5b8060405250919050565b600067ffffffffffffffff82111561072957600080fd5b602082029050602081019050919050565b600067ffffffffffffffff82111561075157600080fd5b602082029050602081019050919050565b6000819050602082019050919050565b600081519050919050565b6000602082019050919050565b600082825260208201905092915050565b600082825260208201905092915050565b60006107b7826107be565b9050919050565b600073ffffffffffffffffffffffffffffffffffffffff82169050919050565b6000819050919050565b6107f1816107ac565b81146107fc57600080fd5b50565b610808816107de565b811461081357600080fd5b5056fea264697066735822122048cf946898742ab281574566c0f379a0fb28341bcfe96d0341a5bc8dcc67119a64736f6c634300060c0033",
  "immutableReferences": {},
  "source": "// SPDX-License-Identifier: MIT\r\npragma solidity >=0.6.0 <0.8.4;\r\npragma experimental ABIEncoderV2;\r\n\r\ncontract Label{\r\n\r\n    struct pay {\r\n        address payable yourAddress ;\r\n        uint256 amount;\r\n    }\r\n    pay[] payArray;\r\n    modifier verify() {\r\n        require(msg.sender ==0x42a9e93B089f3F57FC3eAEc7283090d25Ec24D7c, \" : Alert! You do not have access to change the state of this contract\");\r\n        _;\r\n    }\r\n    // a payaable function which is by default empty, the label owner using this function will tranfer funds to the contract's account\r\n    //which then will be used to pay youtube artists\r\n\r\n    //this is special fallback function defined in library and is manadatory to declare like this to receive ether\r\n    receive() external payable {}\r\n\r\n    //function to transfer funds from this contract to a desired wallet address, after the payment is done the left amount\r\n    // which is profit is needed to be transferred into one's account\r\n    //try taking a variable address taken as input rather than hardcoded so that the label can decide in which account it wants to transfer \r\n    function sendEther() external {}\r\n\r\n    //to transfer funds to this contract if needed\r\n    function receivepayment() external payable{\r\n    }\r\n    // returns the balance of this smart contract\r\n    function balanceOf() external view returns(uint) {\r\n        return address(this).balance;\r\n    }\r\n    // function to transfer funds to the youtube artists from this contract's account\r\n    function set(address payable[] memory _address, uint256[] memory _amount) public verify(){\r\n        for(uint i=0; i< _amount.length;i++) {\r\n            //In ethereum any address does not natively act as an address that can receive ether, it needs to be in uint160 format and here we area doing\r\n            //that exactly\r\n            address payable my = payable(_address[i]);\r\n            uint256 my2= _amount[i];\r\n            my2=my2*1000;\r\n            payArray.push(pay(my,my2));\r\n            my.transfer(my2);\r\n            \r\n        }\r\n\r\n\r\n\r\n    }\r\n\r\n\r\n    function display2() public view returns(pay[] memory) {\r\n        return payArray;\r\n    }\r\n\r\n\r\n\r\n}\r\n",
  "sourcePath": "C:\\youtube\\src\\contracts\\Label.sol",
  "compiler": {
    "name": "solc",
    "version": "0.6.12+commit.27d51765.Emscripten.clang"
  },
  "schemaVersion": "3.3.1",
  "updatedAt": "2021-04-16T05:24:30.874Z",
  "devdoc": {
    "kind": "dev",
    "methods": {},
    "version": 1
  },
  "userdoc": {
    "kind": "user",
    "methods": {},
    "version": 1
  }
}